{
  "contractName": "Court",
  "abi": [
    {
      "anonymous": false,
      "inputs": [
        {
          "indexed": true,
          "internalType": "uint256",
          "name": "id",
          "type": "uint256"
        },
        {
          "indexed": false,
          "internalType": "string",
          "name": "caseNumber",
          "type": "string"
        },
        {
          "indexed": false,
          "internalType": "string",
          "name": "evidenceHash",
          "type": "string"
        },
        {
          "indexed": true,
          "internalType": "address",
          "name": "submitter",
          "type": "address"
        }
      ],
      "name": "EvidenceSubmitted",
      "type": "event"
    },
    {
      "inputs": [],
      "name": "evidenceCount",
      "outputs": [
        {
          "internalType": "uint256",
          "name": "",
          "type": "uint256"
        }
      ],
      "stateMutability": "view",
      "type": "function",
      "constant": true
    },
    {
      "inputs": [
        {
          "internalType": "uint256",
          "name": "",
          "type": "uint256"
        }
      ],
      "name": "evidences",
      "outputs": [
        {
          "internalType": "uint256",
          "name": "id",
          "type": "uint256"
        },
        {
          "internalType": "string",
          "name": "caseNumber",
          "type": "string"
        },
        {
          "internalType": "string",
          "name": "evidenceHash",
          "type": "string"
        },
        {
          "internalType": "string",
          "name": "description",
          "type": "string"
        },
        {
          "internalType": "address",
          "name": "submitter",
          "type": "address"
        },
        {
          "internalType": "uint256",
          "name": "timestamp",
          "type": "uint256"
        },
        {
          "internalType": "bool",
          "name": "isValid",
          "type": "bool"
        }
      ],
      "stateMutability": "view",
      "type": "function",
      "constant": true
    },
    {
      "inputs": [
        {
          "internalType": "string",
          "name": "_caseNumber",
          "type": "string"
        },
        {
          "internalType": "string",
          "name": "_evidenceHash",
          "type": "string"
        },
        {
          "internalType": "string",
          "name": "_description",
          "type": "string"
        }
      ],
      "name": "submitEvidence",
      "outputs": [
        {
          "internalType": "uint256",
          "name": "",
          "type": "uint256"
        }
      ],
      "stateMutability": "nonpayable",
      "type": "function"
    },
    {
      "inputs": [
        {
          "internalType": "uint256",
          "name": "_id",
          "type": "uint256"
        }
      ],
      "name": "getEvidence",
      "outputs": [
        {
          "internalType": "uint256",
          "name": "id",
          "type": "uint256"
        },
        {
          "internalType": "string",
          "name": "caseNumber",
          "type": "string"
        },
        {
          "internalType": "string",
          "name": "evidenceHash",
          "type": "string"
        },
        {
          "internalType": "string",
          "name": "description",
          "type": "string"
        },
        {
          "internalType": "address",
          "name": "submitter",
          "type": "address"
        },
        {
          "internalType": "uint256",
          "name": "timestamp",
          "type": "uint256"
        },
        {
          "internalType": "bool",
          "name": "isValid",
          "type": "bool"
        }
      ],
      "stateMutability": "view",
      "type": "function",
      "constant": true
    }
  ],
  "bytecode": "0x608060405234801561001057600080fd5b50610f06806100206000396000f3fe608060405234801561001057600080fd5b506004361061004c5760003560e01c80632e4546cd14610051578063a2ed5af014610087578063a460c040146100a5578063c956f143146100d5575b600080fd5b61006b600480360381019061006691906107a1565b61010b565b60405161007e97969594939291906108c9565b60405180910390f35b61008f610312565b60405161009c919061094d565b60405180910390f35b6100bf60048036038101906100ba9190610a9d565b610318565b6040516100cc919061094d565b60405180910390f35b6100ef60048036038101906100ea91906107a1565b6104b3565b60405161010297969594939291906108c9565b60405180910390f35b600060205280600052604060002060009150905080600001549080600101805461013490610b73565b80601f016020809104026020016040519081016040528092919081815260200182805461016090610b73565b80156101ad5780601f10610182576101008083540402835291602001916101ad565b820191906000526020600020905b81548152906001019060200180831161019057829003601f168201915b5050505050908060020180546101c290610b73565b80601f01602080910402602001604051908101604052809291908181526020018280546101ee90610b73565b801561023b5780601f106102105761010080835404028352916020019161023b565b820191906000526020600020905b81548152906001019060200180831161021e57829003601f168201915b50505050509080600301805461025090610b73565b80601f016020809104026020016040519081016040528092919081815260200182805461027c90610b73565b80156102c95780601f1061029e576101008083540402835291602001916102c9565b820191906000526020600020905b8154815290600101906020018083116102ac57829003601f168201915b5050505050908060040160009054906101000a900473ffffffffffffffffffffffffffffffffffffffff16908060050154908060060160009054906101000a900460ff16905087565b60015481565b60006001600081548092919061032d90610bd3565b91905055506040518060e0016040528060015481526020018581526020018481526020018381526020013373ffffffffffffffffffffffffffffffffffffffff1681526020014281526020016001151581525060008060015481526020019081526020016000206000820151816000015560208201518160010190816103b39190610dc7565b5060408201518160020190816103c99190610dc7565b5060608201518160030190816103df9190610dc7565b5060808201518160040160006101000a81548173ffffffffffffffffffffffffffffffffffffffff021916908373ffffffffffffffffffffffffffffffffffffffff16021790555060a0820151816005015560c08201518160060160006101000a81548160ff0219169083151502179055509050503373ffffffffffffffffffffffffffffffffffffffff166001547fc32c57e0ea430850225649d8423c394a18e19631a2639571f158044009320fa0868660405161049f929190610e99565b60405180910390a360015490509392505050565b600060608060606000806000806000808a81526020019081526020016000206040518060e0016040529081600082015481526020016001820180546104f790610b73565b80601f016020809104026020016040519081016040528092919081815260200182805461052390610b73565b80156105705780601f1061054557610100808354040283529160200191610570565b820191906000526020600020905b81548152906001019060200180831161055357829003601f168201915b5050505050815260200160028201805461058990610b73565b80601f01602080910402602001604051908101604052809291908181526020018280546105b590610b73565b80156106025780601f106105d757610100808354040283529160200191610602565b820191906000526020600020905b8154815290600101906020018083116105e557829003601f168201915b5050505050815260200160038201805461061b90610b73565b80601f016020809104026020016040519081016040528092919081815260200182805461064790610b73565b80156106945780601f1061066957610100808354040283529160200191610694565b820191906000526020600020905b81548152906001019060200180831161067757829003601f168201915b505050505081526020016004820160009054906101000a900473ffffffffffffffffffffffffffffffffffffffff1673ffffffffffffffffffffffffffffffffffffffff1673ffffffffffffffffffffffffffffffffffffffff168152602001600582015481526020016006820160009054906101000a900460ff1615151515815250509050806000015181602001518260400151836060015184608001518560a001518660c00151975097509750975097509750975050919395979092949650565b6000604051905090565b600080fd5b600080fd5b6000819050919050565b61077e8161076b565b811461078957600080fd5b50565b60008135905061079b81610775565b92915050565b6000602082840312156107b7576107b6610761565b5b60006107c58482850161078c565b91505092915050565b6107d78161076b565b82525050565b600081519050919050565b600082825260208201905092915050565b60005b838110156108175780820151818401526020810190506107fc565b60008484015250505050565b6000601f19601f8301169050919050565b600061083f826107dd565b61084981856107e8565b93506108598185602086016107f9565b61086281610823565b840191505092915050565b600073ffffffffffffffffffffffffffffffffffffffff82169050919050565b60006108988261086d565b9050919050565b6108a88161088d565b82525050565b60008115159050919050565b6108c3816108ae565b82525050565b600060e0820190506108de600083018a6107ce565b81810360208301526108f08189610834565b905081810360408301526109048188610834565b905081810360608301526109188187610834565b9050610927608083018661089f565b61093460a08301856107ce565b61094160c08301846108ba565b98975050505050505050565b600060208201905061096260008301846107ce565b92915050565b600080fd5b600080fd5b7f4e487b7100000000000000000000000000000000000000000000000000000000600052604160045260246000fd5b6109aa82610823565b810181811067ffffffffffffffff821117156109c9576109c8610972565b5b80604052505050565b60006109dc610757565b90506109e882826109a1565b919050565b600067ffffffffffffffff821115610a0857610a07610972565b5b610a1182610823565b9050602081019050919050565b82818337600083830152505050565b6000610a40610a3b846109ed565b6109d2565b905082815260208101848484011115610a5c57610a5b61096d565b5b610a67848285610a1e565b509392505050565b600082601f830112610a8457610a83610968565b5b8135610a94848260208601610a2d565b91505092915050565b600080600060608486031215610ab657610ab5610761565b5b600084013567ffffffffffffffff811115610ad457610ad3610766565b5b610ae086828701610a6f565b935050602084013567ffffffffffffffff811115610b0157610b00610766565b5b610b0d86828701610a6f565b925050604084013567ffffffffffffffff811115610b2e57610b2d610766565b5b610b3a86828701610a6f565b9150509250925092565b7f4e487b7100000000000000000000000000000000000000000000000000000000600052602260045260246000fd5b60006002820490506001821680610b8b57607f821691505b602082108103610b9e57610b9d610b44565b5b50919050565b7f4e487b7100000000000000000000000000000000000000000000000000000000600052601160045260246000fd5b6000610bde8261076b565b91507fffffffffffffffffffffffffffffffffffffffffffffffffffffffffffffffff8203610c1057610c0f610ba4565b5b600182019050919050565b60008190508160005260206000209050919050565b60006020601f8301049050919050565b600082821b905092915050565b600060088302610c7d7fffffffffffffffffffffffffffffffffffffffffffffffffffffffffffffffff82610c40565b610c878683610c40565b95508019841693508086168417925050509392505050565b6000819050919050565b6000610cc4610cbf610cba8461076b565b610c9f565b61076b565b9050919050565b6000819050919050565b610cde83610ca9565b610cf2610cea82610ccb565b848454610c4d565b825550505050565b600090565b610d07610cfa565b610d12818484610cd5565b505050565b5b81811015610d3657610d2b600082610cff565b600181019050610d18565b5050565b601f821115610d7b57610d4c81610c1b565b610d5584610c30565b81016020851015610d64578190505b610d78610d7085610c30565b830182610d17565b50505b505050565b600082821c905092915050565b6000610d9e60001984600802610d80565b1980831691505092915050565b6000610db78383610d8d565b9150826002028217905092915050565b610dd0826107dd565b67ffffffffffffffff811115610de957610de8610972565b5b610df38254610b73565b610dfe828285610d3a565b600060209050601f831160018114610e315760008415610e1f578287015190505b610e298582610dab565b865550610e91565b601f198416610e3f86610c1b565b60005b82811015610e6757848901518255600182019150602085019450602081019050610e42565b86831015610e845784890151610e80601f891682610d8d565b8355505b6001600288020188555050505b505050505050565b60006040820190508181036000830152610eb38185610834565b90508181036020830152610ec78184610834565b9050939250505056fea26469706673582212203089082a54b64898d623856fe7f23c6e96e2e8d8d3ba28d735bb468a00670bd864736f6c63430008130033",
  "immutableReferences": {},
  "source": "// contracts/Court.sol\r\n// SPDX-License-Identifier: MIT\r\npragma solidity ^0.8.19;\r\n\r\ncontract Court {\r\n    struct Evidence {\r\n        uint256 id;\r\n        string caseNumber;\r\n        string evidenceHash;\r\n        string description;\r\n        address submitter;\r\n        uint256 timestamp;\r\n        bool isValid;\r\n    }\r\n\r\n    mapping(uint256 => Evidence) public evidences;\r\n    uint256 public evidenceCount;\r\n    \r\n    event EvidenceSubmitted(\r\n        uint256 indexed id,\r\n        string caseNumber,\r\n        string evidenceHash,\r\n        address indexed submitter\r\n    );\r\n\r\n    function submitEvidence(\r\n        string memory _caseNumber,\r\n        string memory _evidenceHash,\r\n        string memory _description\r\n    ) public returns (uint256) {\r\n        evidenceCount++;\r\n        \r\n        evidences[evidenceCount] = Evidence(\r\n            evidenceCount,\r\n            _caseNumber,\r\n            _evidenceHash,\r\n            _description,\r\n            msg.sender,\r\n            block.timestamp,\r\n            true\r\n        );\r\n\r\n        emit EvidenceSubmitted(\r\n            evidenceCount,\r\n            _caseNumber,\r\n            _evidenceHash,\r\n            msg.sender\r\n        );\r\n\r\n        return evidenceCount;\r\n    }\r\n\r\n    function getEvidence(uint256 _id) public view returns (\r\n        uint256 id,\r\n        string memory caseNumber,\r\n        string memory evidenceHash,\r\n        string memory description,\r\n        address submitter,\r\n        uint256 timestamp,\r\n        bool isValid\r\n    ) {\r\n        Evidence memory e = evidences[_id];\r\n        return (\r\n            e.id,\r\n            e.caseNumber,\r\n            e.evidenceHash,\r\n            e.description,\r\n            e.submitter,\r\n            e.timestamp,\r\n            e.isValid\r\n        );\r\n    }\r\n}",
  "sourcePath": "D:\\my_project\\hackkshetra\\blockchain\\contracts\\Court.sol",
  "compiler": {
    "name": "solc",
    "version": "0.8.19+commit.7dd6d404.Emscripten.clang"
  },
  "schemaVersion": "3.4.16",
  "updatedAt": "2024-12-13T16:41:55.249Z",
  "networkType": "ethereum",
  "devdoc": {
    "kind": "dev",
    "methods": {},
    "version": 1
  },
  "userdoc": {
    "kind": "user",
    "methods": {},
    "version": 1
  }
}