{
  "contractName": "EvidenceChain",
  "abi": [
    {
      "inputs": [],
      "stateMutability": "nonpayable",
      "type": "constructor"
    },
    {
      "anonymous": false,
      "inputs": [
        {
          "indexed": true,
          "internalType": "uint256",
          "name": "id",
          "type": "uint256"
        },
        {
          "indexed": false,
          "internalType": "string",
          "name": "ipfsHash",
          "type": "string"
        },
        {
          "indexed": true,
          "internalType": "address",
          "name": "owner",
          "type": "address"
        },
        {
          "indexed": false,
          "internalType": "uint256",
          "name": "timestamp",
          "type": "uint256"
        }
      ],
      "name": "EvidenceAdded",
      "type": "event"
    },
    {
      "inputs": [
        {
          "internalType": "uint256",
          "name": "",
          "type": "uint256"
        }
      ],
      "name": "evidenceRecords",
      "outputs": [
        {
          "internalType": "uint256",
          "name": "id",
          "type": "uint256"
        },
        {
          "internalType": "string",
          "name": "ipfsHash",
          "type": "string"
        },
        {
          "internalType": "string",
          "name": "description",
          "type": "string"
        },
        {
          "internalType": "uint256",
          "name": "timestamp",
          "type": "uint256"
        },
        {
          "internalType": "address",
          "name": "owner",
          "type": "address"
        },
        {
          "internalType": "bool",
          "name": "exists",
          "type": "bool"
        }
      ],
      "stateMutability": "view",
      "type": "function"
    },
    {
      "inputs": [],
      "name": "totalEvidence",
      "outputs": [
        {
          "internalType": "uint256",
          "name": "",
          "type": "uint256"
        }
      ],
      "stateMutability": "view",
      "type": "function"
    },
    {
      "inputs": [
        {
          "internalType": "string",
          "name": "_ipfsHash",
          "type": "string"
        },
        {
          "internalType": "string",
          "name": "_description",
          "type": "string"
        }
      ],
      "name": "addEvidence",
      "outputs": [
        {
          "internalType": "uint256",
          "name": "",
          "type": "uint256"
        }
      ],
      "stateMutability": "nonpayable",
      "type": "function"
    },
    {
      "inputs": [
        {
          "internalType": "uint256",
          "name": "_id",
          "type": "uint256"
        }
      ],
      "name": "getEvidence",
      "outputs": [
        {
          "components": [
            {
              "internalType": "uint256",
              "name": "id",
              "type": "uint256"
            },
            {
              "internalType": "string",
              "name": "ipfsHash",
              "type": "string"
            },
            {
              "internalType": "string",
              "name": "description",
              "type": "string"
            },
            {
              "internalType": "uint256",
              "name": "timestamp",
              "type": "uint256"
            },
            {
              "internalType": "address",
              "name": "owner",
              "type": "address"
            },
            {
              "internalType": "bool",
              "name": "exists",
              "type": "bool"
            }
          ],
          "internalType": "struct EvidenceChain.Evidence",
          "name": "",
          "type": "tuple"
        }
      ],
      "stateMutability": "view",
      "type": "function"
    },
    {
      "inputs": [],
      "name": "getEvidenceCount",
      "outputs": [
        {
          "internalType": "uint256",
          "name": "",
          "type": "uint256"
        }
      ],
      "stateMutability": "view",
      "type": "function"
    }
  ],
  "bytecode": "0x608060405234801561001057600080fd5b506000600181905550611061806100286000396000f3fe608060405234801561001057600080fd5b50600436106100575760003560e01c806350e4a9101461005c578063b8d444871461007a578063c956f14314610098578063eb5c0bea146100c8578063eba57a57146100f8575b600080fd5b61006461012d565b6040516100719190610715565b60405180910390f35b610082610133565b60405161008f9190610715565b60405180910390f35b6100b260048036038101906100ad9190610770565b61013d565b6040516100bf9190610928565b60405180910390f35b6100e260048036038101906100dd9190610a7f565b610374565b6040516100ef9190610715565b60405180910390f35b610112600480360381019061010d9190610770565b610535565b60405161012496959493929190610b5f565b60405180910390f35b60015481565b6000600154905090565b6101456106ae565b60008083815260200190815260200160002060040160149054906101000a900460ff166101a7576040517f08c379a000000000000000000000000000000000000000000000000000000000815260040161019e90610c1a565b60405180910390fd5b6000808381526020019081526020016000206040518060c0016040529081600082015481526020016001820180546101de90610c69565b80601f016020809104026020016040519081016040528092919081815260200182805461020a90610c69565b80156102575780601f1061022c57610100808354040283529160200191610257565b820191906000526020600020905b81548152906001019060200180831161023a57829003601f168201915b5050505050815260200160028201805461027090610c69565b80601f016020809104026020016040519081016040528092919081815260200182805461029c90610c69565b80156102e95780601f106102be576101008083540402835291602001916102e9565b820191906000526020600020905b8154815290600101906020018083116102cc57829003601f168201915b50505050508152602001600382015481526020016004820160009054906101000a900473ffffffffffffffffffffffffffffffffffffffff1673ffffffffffffffffffffffffffffffffffffffff1673ffffffffffffffffffffffffffffffffffffffff1681526020016004820160149054906101000a900460ff1615151515815250509050919050565b6000808351116103b9576040517f08c379a00000000000000000000000000000000000000000000000000000000081526004016103b090610ce6565b60405180910390fd5b600160008154809291906103cc90610d35565b9190505550600060015490506040518060c001604052808281526020018581526020018481526020014281526020013373ffffffffffffffffffffffffffffffffffffffff1681526020016001151581525060008083815260200190815260200160002060008201518160000155602082015181600101908161044f9190610f29565b5060408201518160020190816104659190610f29565b506060820151816003015560808201518160040160006101000a81548173ffffffffffffffffffffffffffffffffffffffff021916908373ffffffffffffffffffffffffffffffffffffffff16021790555060a08201518160040160146101000a81548160ff0219169083151502179055509050503373ffffffffffffffffffffffffffffffffffffffff16817f250b2ec63b9d5a125de69324ae4ef152d8217dd9ffdae0d2398951c4e93db5c58642604051610523929190610ffb565b60405180910390a38091505092915050565b600060205280600052604060002060009150905080600001549080600101805461055e90610c69565b80601f016020809104026020016040519081016040528092919081815260200182805461058a90610c69565b80156105d75780601f106105ac576101008083540402835291602001916105d7565b820191906000526020600020905b8154815290600101906020018083116105ba57829003601f168201915b5050505050908060020180546105ec90610c69565b80601f016020809104026020016040519081016040528092919081815260200182805461061890610c69565b80156106655780601f1061063a57610100808354040283529160200191610665565b820191906000526020600020905b81548152906001019060200180831161064857829003601f168201915b5050505050908060030154908060040160009054906101000a900473ffffffffffffffffffffffffffffffffffffffff16908060040160149054906101000a900460ff16905086565b6040518060c0016040528060008152602001606081526020016060815260200160008152602001600073ffffffffffffffffffffffffffffffffffffffff1681526020016000151581525090565b6000819050919050565b61070f816106fc565b82525050565b600060208201905061072a6000830184610706565b92915050565b6000604051905090565b600080fd5b600080fd5b61074d816106fc565b811461075857600080fd5b50565b60008135905061076a81610744565b92915050565b6000602082840312156107865761078561073a565b5b60006107948482850161075b565b91505092915050565b6107a6816106fc565b82525050565b600081519050919050565b600082825260208201905092915050565b60005b838110156107e65780820151818401526020810190506107cb565b60008484015250505050565b6000601f19601f8301169050919050565b600061080e826107ac565b61081881856107b7565b93506108288185602086016107c8565b610831816107f2565b840191505092915050565b600073ffffffffffffffffffffffffffffffffffffffff82169050919050565b60006108678261083c565b9050919050565b6108778161085c565b82525050565b60008115159050919050565b6108928161087d565b82525050565b600060c0830160008301516108b0600086018261079d565b50602083015184820360208601526108c88282610803565b915050604083015184820360408601526108e28282610803565b91505060608301516108f7606086018261079d565b50608083015161090a608086018261086e565b5060a083015161091d60a0860182610889565b508091505092915050565b600060208201905081810360008301526109428184610898565b905092915050565b600080fd5b600080fd5b7f4e487b7100000000000000000000000000000000000000000000000000000000600052604160045260246000fd5b61098c826107f2565b810181811067ffffffffffffffff821117156109ab576109aa610954565b5b80604052505050565b60006109be610730565b90506109ca8282610983565b919050565b600067ffffffffffffffff8211156109ea576109e9610954565b5b6109f3826107f2565b9050602081019050919050565b82818337600083830152505050565b6000610a22610a1d846109cf565b6109b4565b905082815260208101848484011115610a3e57610a3d61094f565b5b610a49848285610a00565b509392505050565b600082601f830112610a6657610a6561094a565b5b8135610a76848260208601610a0f565b91505092915050565b60008060408385031215610a9657610a9561073a565b5b600083013567ffffffffffffffff811115610ab457610ab361073f565b5b610ac085828601610a51565b925050602083013567ffffffffffffffff811115610ae157610ae061073f565b5b610aed85828601610a51565b9150509250929050565b600082825260208201905092915050565b6000610b13826107ac565b610b1d8185610af7565b9350610b2d8185602086016107c8565b610b36816107f2565b840191505092915050565b610b4a8161085c565b82525050565b610b598161087d565b82525050565b600060c082019050610b746000830189610706565b8181036020830152610b868188610b08565b90508181036040830152610b9a8187610b08565b9050610ba96060830186610706565b610bb66080830185610b41565b610bc360a0830184610b50565b979650505050505050565b7f45766964656e636520646f6573206e6f74206578697374000000000000000000600082015250565b6000610c04601783610af7565b9150610c0f82610bce565b602082019050919050565b60006020820190508181036000830152610c3381610bf7565b9050919050565b7f4e487b7100000000000000000000000000000000000000000000000000000000600052602260045260246000fd5b60006002820490506001821680610c8157607f821691505b602082108103610c9457610c93610c3a565b5b50919050565b7f4950465320686173682063616e6e6f7420626520656d70747900000000000000600082015250565b6000610cd0601983610af7565b9150610cdb82610c9a565b602082019050919050565b60006020820190508181036000830152610cff81610cc3565b9050919050565b7f4e487b7100000000000000000000000000000000000000000000000000000000600052601160045260246000fd5b6000610d40826106fc565b91507fffffffffffffffffffffffffffffffffffffffffffffffffffffffffffffffff8203610d7257610d71610d06565b5b600182019050919050565b60008190508160005260206000209050919050565b60006020601f8301049050919050565b600082821b905092915050565b600060088302610ddf7fffffffffffffffffffffffffffffffffffffffffffffffffffffffffffffffff82610da2565b610de98683610da2565b95508019841693508086168417925050509392505050565b6000819050919050565b6000610e26610e21610e1c846106fc565b610e01565b6106fc565b9050919050565b6000819050919050565b610e4083610e0b565b610e54610e4c82610e2d565b848454610daf565b825550505050565b600090565b610e69610e5c565b610e74818484610e37565b505050565b5b81811015610e9857610e8d600082610e61565b600181019050610e7a565b5050565b601f821115610edd57610eae81610d7d565b610eb784610d92565b81016020851015610ec6578190505b610eda610ed285610d92565b830182610e79565b50505b505050565b600082821c905092915050565b6000610f0060001984600802610ee2565b1980831691505092915050565b6000610f198383610eef565b9150826002028217905092915050565b610f32826107ac565b67ffffffffffffffff811115610f4b57610f4a610954565b5b610f558254610c69565b610f60828285610e9c565b600060209050601f831160018114610f935760008415610f81578287015190505b610f8b8582610f0d565b865550610ff3565b601f198416610fa186610d7d565b60005b82811015610fc957848901518255600182019150602085019450602081019050610fa4565b86831015610fe65784890151610fe2601f891682610eef565b8355505b6001600288020188555050505b505050505050565b600060408201905081810360008301526110158185610b08565b90506110246020830184610706565b939250505056fea2646970667358221220154581e430f57b1d493d4a18a41223f0828006fb14e48a3d4908801eb07dcd7064736f6c63430008130033",
  "immutableReferences": {},
  "source": "// blockchain/contracts/EvidenceChain.sol\r\n// SPDX-License-Identifier: MIT\r\npragma solidity ^0.8.19;\r\n\r\ncontract EvidenceChain {\r\n    struct Evidence {\r\n        uint256 id;\r\n        string ipfsHash;\r\n        string description;\r\n        uint256 timestamp;\r\n        address owner;\r\n        bool exists;\r\n    }\r\n\r\n    mapping(uint256 => Evidence) public evidenceRecords;\r\n    uint256 public totalEvidence;\r\n    \r\n    event EvidenceAdded(\r\n        uint256 indexed id,\r\n        string ipfsHash,\r\n        address indexed owner,\r\n        uint256 timestamp\r\n    );\r\n\r\n    constructor() {\r\n        totalEvidence = 0;\r\n    }\r\n\r\n    function addEvidence(string memory _ipfsHash, string memory _description) \r\n        public \r\n        returns (uint256) \r\n    {\r\n        require(bytes(_ipfsHash).length > 0, \"IPFS hash cannot be empty\");\r\n        \r\n        totalEvidence++;\r\n        uint256 newId = totalEvidence;\r\n        \r\n        evidenceRecords[newId] = Evidence({\r\n            id: newId,\r\n            ipfsHash: _ipfsHash,\r\n            description: _description,\r\n            timestamp: block.timestamp,\r\n            owner: msg.sender,\r\n            exists: true\r\n        });\r\n\r\n        emit EvidenceAdded(newId, _ipfsHash, msg.sender, block.timestamp);\r\n        return newId;\r\n    }\r\n\r\n    function getEvidence(uint256 _id) \r\n        public \r\n        view \r\n        returns (Evidence memory) \r\n    {\r\n        require(evidenceRecords[_id].exists, \"Evidence does not exist\");\r\n        return evidenceRecords[_id];\r\n    }\r\n\r\n    function getEvidenceCount() public view returns (uint256) {\r\n        return totalEvidence;\r\n    }\r\n}",
  "sourcePath": "C:\\Users\\vinay\\OneDrive\\Documents\\Desktop\\hackkshetra\\blockchain\\contracts\\Court.sol",
  "compiler": {
    "name": "solc",
    "version": "0.8.19+commit.7dd6d404.Emscripten.clang"
  },
  "schemaVersion": "3.4.16",
  "updatedAt": "2024-11-03T05:26:04.383Z",
  "devdoc": {
    "kind": "dev",
    "methods": {},
    "version": 1
  },
  "userdoc": {
    "kind": "user",
    "methods": {},
    "version": 1
  }
}