{
  "contractName": "Evidence",
  "abi": [
    {
      "inputs": [],
      "stateMutability": "nonpayable",
      "type": "constructor"
    },
    {
      "anonymous": false,
      "inputs": [
        {
          "indexed": true,
          "internalType": "uint256",
          "name": "id",
          "type": "uint256"
        },
        {
          "indexed": false,
          "internalType": "string",
          "name": "ipfsHash",
          "type": "string"
        },
        {
          "indexed": false,
          "internalType": "string",
          "name": "caseNumber",
          "type": "string"
        },
        {
          "indexed": true,
          "internalType": "address",
          "name": "submitter",
          "type": "address"
        },
        {
          "indexed": false,
          "internalType": "uint256",
          "name": "timestamp",
          "type": "uint256"
        }
      ],
      "name": "EvidenceAdded",
      "type": "event"
    },
    {
      "inputs": [],
      "name": "evidenceCount",
      "outputs": [
        {
          "internalType": "uint256",
          "name": "",
          "type": "uint256"
        }
      ],
      "stateMutability": "view",
      "type": "function",
      "constant": true
    },
    {
      "inputs": [
        {
          "internalType": "uint256",
          "name": "",
          "type": "uint256"
        }
      ],
      "name": "evidenceItems",
      "outputs": [
        {
          "internalType": "string",
          "name": "ipfsHash",
          "type": "string"
        },
        {
          "internalType": "string",
          "name": "caseNumber",
          "type": "string"
        },
        {
          "internalType": "address",
          "name": "submitter",
          "type": "address"
        },
        {
          "internalType": "uint256",
          "name": "timestamp",
          "type": "uint256"
        },
        {
          "internalType": "bool",
          "name": "exists",
          "type": "bool"
        }
      ],
      "stateMutability": "view",
      "type": "function",
      "constant": true
    },
    {
      "inputs": [],
      "name": "owner",
      "outputs": [
        {
          "internalType": "address",
          "name": "",
          "type": "address"
        }
      ],
      "stateMutability": "view",
      "type": "function",
      "constant": true
    },
    {
      "inputs": [
        {
          "internalType": "string",
          "name": "_ipfsHash",
          "type": "string"
        },
        {
          "internalType": "string",
          "name": "_caseNumber",
          "type": "string"
        }
      ],
      "name": "addEvidence",
      "outputs": [
        {
          "internalType": "uint256",
          "name": "",
          "type": "uint256"
        }
      ],
      "stateMutability": "nonpayable",
      "type": "function"
    },
    {
      "inputs": [
        {
          "internalType": "uint256",
          "name": "_id",
          "type": "uint256"
        }
      ],
      "name": "getEvidence",
      "outputs": [
        {
          "internalType": "string",
          "name": "ipfsHash",
          "type": "string"
        },
        {
          "internalType": "string",
          "name": "caseNumber",
          "type": "string"
        },
        {
          "internalType": "address",
          "name": "submitter",
          "type": "address"
        },
        {
          "internalType": "uint256",
          "name": "timestamp",
          "type": "uint256"
        }
      ],
      "stateMutability": "view",
      "type": "function",
      "constant": true
    },
    {
      "inputs": [],
      "name": "getEvidenceCount",
      "outputs": [
        {
          "internalType": "uint256",
          "name": "",
          "type": "uint256"
        }
      ],
      "stateMutability": "view",
      "type": "function",
      "constant": true
    },
    {
      "inputs": [
        {
          "internalType": "address",
          "name": "newOwner",
          "type": "address"
        }
      ],
      "name": "transferOwnership",
      "outputs": [],
      "stateMutability": "nonpayable",
      "type": "function"
    }
  ],
  "bytecode": "0x608060405234801561001057600080fd5b50336000806101000a81548173ffffffffffffffffffffffffffffffffffffffff021916908373ffffffffffffffffffffffffffffffffffffffff160217905550611118806100606000396000f3fe608060405234801561001057600080fd5b506004361061007d5760003560e01c8063b8d444871161005b578063b8d44487146100f2578063c956f14314610110578063eb5c0bea14610143578063f2fde38b146101735761007d565b806369825d25146100825780638da5cb5b146100b6578063a2ed5af0146100d4575b600080fd5b61009c60048036038101906100979190610a70565b61018f565b6040516100ad959493929190610d13565b60405180910390f35b6100be610302565b6040516100cb9190610ca5565b60405180910390f35b6100dc610326565b6040516100e99190610e79565b60405180910390f35b6100fa61032c565b6040516101079190610e79565b60405180910390f35b61012a60048036038101906101259190610a70565b610336565b60405161013a9493929190610cc0565b60405180910390f35b61015d60048036038101906101589190610a04565b610561565b60405161016a9190610e79565b60405180910390f35b61018d600480360381019061018891906109db565b610765565b005b60016020528060005260406000206000915090508060000180546101b290610f9b565b80601f01602080910402602001604051908101604052809291908181526020018280546101de90610f9b565b801561022b5780601f106102005761010080835404028352916020019161022b565b820191906000526020600020905b81548152906001019060200180831161020e57829003601f168201915b50505050509080600101805461024090610f9b565b80601f016020809104026020016040519081016040528092919081815260200182805461026c90610f9b565b80156102b95780601f1061028e576101008083540402835291602001916102b9565b820191906000526020600020905b81548152906001019060200180831161029c57829003601f168201915b5050505050908060020160009054906101000a900473ffffffffffffffffffffffffffffffffffffffff16908060030154908060040160009054906101000a900460ff16905085565b60008054906101000a900473ffffffffffffffffffffffffffffffffffffffff1681565b60025481565b6000600254905090565b60608060008060008511801561034e57506002548511155b61038d576040517f08c379a000000000000000000000000000000000000000000000000000000000815260040161038490610df9565b60405180910390fd5b6001600086815260200190815260200160002060040160009054906101000a900460ff166103f0576040517f08c379a00000000000000000000000000000000000000000000000000000000081526004016103e790610db9565b60405180910390fd5b600060016000878152602001908152602001600020905080600001816001018260020160009054906101000a900473ffffffffffffffffffffffffffffffffffffffff16836003015483805461044590610f9b565b80601f016020809104026020016040519081016040528092919081815260200182805461047190610f9b565b80156104be5780601f10610493576101008083540402835291602001916104be565b820191906000526020600020905b8154815290600101906020018083116104a157829003601f168201915b505050505093508280546104d190610f9b565b80601f01602080910402602001604051908101604052809291908181526020018280546104fd90610f9b565b801561054a5780601f1061051f5761010080835404028352916020019161054a565b820191906000526020600020905b81548152906001019060200180831161052d57829003601f168201915b505050505092509450945094509450509193509193565b6000808351116105a6576040517f08c379a000000000000000000000000000000000000000000000000000000000815260040161059d90610e19565b60405180910390fd5b60008251116105ea576040517f08c379a00000000000000000000000000000000000000000000000000000000081526004016105e190610e39565b60405180910390fd5b600260008154809291906105fd90610fcd565b91905055506040518060a001604052808481526020018381526020013373ffffffffffffffffffffffffffffffffffffffff1681526020014281526020016001151581525060016000600254815260200190815260200160002060008201518160000190805190602001906106739291906108a6565b5060208201518160010190805190602001906106909291906108a6565b5060408201518160020160006101000a81548173ffffffffffffffffffffffffffffffffffffffff021916908373ffffffffffffffffffffffffffffffffffffffff1602179055506060820151816003015560808201518160040160006101000a81548160ff0219169083151502179055509050503373ffffffffffffffffffffffffffffffffffffffff166002547f38784128da69541ed2e785f07169d93616c3c7e82eb8f7139af309fe0148f82285854260405161075293929190610d74565b60405180910390a3600254905092915050565b60008054906101000a900473ffffffffffffffffffffffffffffffffffffffff1673ffffffffffffffffffffffffffffffffffffffff163373ffffffffffffffffffffffffffffffffffffffff16146107f3576040517f08c379a00000000000000000000000000000000000000000000000000000000081526004016107ea90610dd9565b60405180910390fd5b600073ffffffffffffffffffffffffffffffffffffffff168173ffffffffffffffffffffffffffffffffffffffff161415610863576040517f08c379a000000000000000000000000000000000000000000000000000000000815260040161085a90610e59565b60405180910390fd5b806000806101000a81548173ffffffffffffffffffffffffffffffffffffffff021916908373ffffffffffffffffffffffffffffffffffffffff16021790555050565b8280546108b290610f9b565b90600052602060002090601f0160209004810192826108d4576000855561091b565b82601f106108ed57805160ff191683800117855561091b565b8280016001018555821561091b579182015b8281111561091a5782518255916020019190600101906108ff565b5b509050610928919061092c565b5090565b5b8082111561094557600081600090555060010161092d565b5090565b600061095c61095784610ec5565b610e94565b90508281526020810184848401111561097457600080fd5b61097f848285610f59565b509392505050565b600081359050610996816110b4565b92915050565b600082601f8301126109ad57600080fd5b81356109bd848260208601610949565b91505092915050565b6000813590506109d5816110cb565b92915050565b6000602082840312156109ed57600080fd5b60006109fb84828501610987565b91505092915050565b60008060408385031215610a1757600080fd5b600083013567ffffffffffffffff811115610a3157600080fd5b610a3d8582860161099c565b925050602083013567ffffffffffffffff811115610a5a57600080fd5b610a668582860161099c565b9150509250929050565b600060208284031215610a8257600080fd5b6000610a90848285016109c6565b91505092915050565b610aa281610f11565b82525050565b610ab181610f23565b82525050565b6000610ac282610ef5565b610acc8185610f00565b9350610adc818560208601610f68565b610ae5816110a3565b840191505092915050565b6000610afd601783610f00565b91507f45766964656e636520646f6573206e6f742065786973740000000000000000006000830152602082019050919050565b6000610b3d602183610f00565b91507f4f6e6c79206f776e65722063616e2063616c6c20746869732066756e6374696f60008301527f6e000000000000000000000000000000000000000000000000000000000000006020830152604082019050919050565b6000610ba3601383610f00565b91507f496e76616c69642065766964656e6365204944000000000000000000000000006000830152602082019050919050565b6000610be3601983610f00565b91507f4950465320686173682063616e6e6f7420626520656d707479000000000000006000830152602082019050919050565b6000610c23601b83610f00565b91507f43617365206e756d6265722063616e6e6f7420626520656d70747900000000006000830152602082019050919050565b6000610c63602083610f00565b91507f4e6577206f776e65722063616e6e6f74206265207a65726f20616464726573736000830152602082019050919050565b610c9f81610f4f565b82525050565b6000602082019050610cba6000830184610a99565b92915050565b60006080820190508181036000830152610cda8187610ab7565b90508181036020830152610cee8186610ab7565b9050610cfd6040830185610a99565b610d0a6060830184610c96565b95945050505050565b600060a0820190508181036000830152610d2d8188610ab7565b90508181036020830152610d418187610ab7565b9050610d506040830186610a99565b610d5d6060830185610c96565b610d6a6080830184610aa8565b9695505050505050565b60006060820190508181036000830152610d8e8186610ab7565b90508181036020830152610da28185610ab7565b9050610db16040830184610c96565b949350505050565b60006020820190508181036000830152610dd281610af0565b9050919050565b60006020820190508181036000830152610df281610b30565b9050919050565b60006020820190508181036000830152610e1281610b96565b9050919050565b60006020820190508181036000830152610e3281610bd6565b9050919050565b60006020820190508181036000830152610e5281610c16565b9050919050565b60006020820190508181036000830152610e7281610c56565b9050919050565b6000602082019050610e8e6000830184610c96565b92915050565b6000604051905081810181811067ffffffffffffffff82111715610ebb57610eba611074565b5b8060405250919050565b600067ffffffffffffffff821115610ee057610edf611074565b5b601f19601f8301169050602081019050919050565b600081519050919050565b600082825260208201905092915050565b6000610f1c82610f2f565b9050919050565b60008115159050919050565b600073ffffffffffffffffffffffffffffffffffffffff82169050919050565b6000819050919050565b82818337600083830152505050565b60005b83811015610f86578082015181840152602081019050610f6b565b83811115610f95576000848401525b50505050565b60006002820490506001821680610fb357607f821691505b60208210811415610fc757610fc6611045565b5b50919050565b6000610fd882610f4f565b91507fffffffffffffffffffffffffffffffffffffffffffffffffffffffffffffffff82141561100b5761100a611016565b5b600182019050919050565b7f4e487b7100000000000000000000000000000000000000000000000000000000600052601160045260246000fd5b7f4e487b7100000000000000000000000000000000000000000000000000000000600052602260045260246000fd5b7f4e487b7100000000000000000000000000000000000000000000000000000000600052604160045260246000fd5b6000601f19601f8301169050919050565b6110bd81610f11565b81146110c857600080fd5b50565b6110d481610f4f565b81146110df57600080fd5b5056fea2646970667358221220a1ca2dca9093c0d5c01d38000e6b634a200acf26ce3e80ac17cf3e96fdd6cd8764736f6c63430008000033",
  "immutableReferences": {},
  "source": "// SPDX-License-Identifier: MIT\npragma solidity ^0.8.0;\n\ncontract Evidence {\n    address public owner;\n\n    struct EvidenceItem {\n        string ipfsHash;\n        string caseNumber;\n        address submitter;\n        uint256 timestamp;\n        bool exists;\n    }\n\n    mapping(uint256 => EvidenceItem) public evidenceItems;\n    uint256 public evidenceCount;\n\n    event EvidenceAdded(\n        uint256 indexed id,\n        string ipfsHash,\n        string caseNumber,\n        address indexed submitter,\n        uint256 timestamp\n    );\n\n    constructor() {\n        owner = msg.sender;\n    }\n\n    modifier onlyOwner() {\n        require(msg.sender == owner, \"Only owner can call this function\");\n        _;\n    }\n\n    function addEvidence(string memory _ipfsHash, string memory _caseNumber) public returns (uint256) {\n        require(bytes(_ipfsHash).length > 0, \"IPFS hash cannot be empty\");\n        require(bytes(_caseNumber).length > 0, \"Case number cannot be empty\");\n\n        evidenceCount++;\n        evidenceItems[evidenceCount] = EvidenceItem({\n            ipfsHash: _ipfsHash,\n            caseNumber: _caseNumber,\n            submitter: msg.sender,\n            timestamp: block.timestamp,\n            exists: true\n        });\n\n        emit EvidenceAdded(\n            evidenceCount,\n            _ipfsHash,\n            _caseNumber,\n            msg.sender,\n            block.timestamp\n        );\n\n        return evidenceCount;\n    }\n\n    function getEvidence(uint256 _id) public view returns (\n        string memory ipfsHash,\n        string memory caseNumber,\n        address submitter,\n        uint256 timestamp\n    ) {\n        require(_id > 0 && _id <= evidenceCount, \"Invalid evidence ID\");\n        require(evidenceItems[_id].exists, \"Evidence does not exist\");\n        \n        EvidenceItem storage item = evidenceItems[_id];\n        return (item.ipfsHash, item.caseNumber, item.submitter, item.timestamp);\n    }\n\n    function getEvidenceCount() public view returns (uint256) {\n        return evidenceCount;\n    }\n\n    function transferOwnership(address newOwner) public onlyOwner {\n        require(newOwner != address(0), \"New owner cannot be zero address\");\n        owner = newOwner;\n    }\n}\n",
  "sourcePath": "d:\\my_project\\hackkshetra\\smart-contracts\\contracts\\Evidence.sol",
  "compiler": {
    "name": "solc",
    "version": "0.8.0+commit.c7dfd78e.Emscripten.clang"
  },
  "schemaVersion": "3.4.16",
  "updatedAt": "2024-12-31T13:58:16.812Z",
  "networkType": "ethereum",
  "devdoc": {
    "kind": "dev",
    "methods": {},
    "version": 1
  },
  "userdoc": {
    "kind": "user",
    "methods": {},
    "version": 1
  }
}