{
  "contractName": "MainContract",
  "abi": [
    {
      "anonymous": false,
      "inputs": [
        {
          "indexed": true,
          "internalType": "uint256",
          "name": "id",
          "type": "uint256"
        },
        {
          "indexed": false,
          "internalType": "string",
          "name": "data",
          "type": "string"
        },
        {
          "indexed": false,
          "internalType": "address",
          "name": "owner",
          "type": "address"
        },
        {
          "indexed": false,
          "internalType": "uint256",
          "name": "timestamp",
          "type": "uint256"
        }
      ],
      "name": "RecordAdded",
      "type": "event"
    },
    {
      "inputs": [],
      "name": "recordCount",
      "outputs": [
        {
          "internalType": "uint256",
          "name": "",
          "type": "uint256"
        }
      ],
      "stateMutability": "view",
      "type": "function",
      "constant": true
    },
    {
      "inputs": [
        {
          "internalType": "uint256",
          "name": "",
          "type": "uint256"
        }
      ],
      "name": "records",
      "outputs": [
        {
          "internalType": "string",
          "name": "data",
          "type": "string"
        },
        {
          "internalType": "address",
          "name": "owner",
          "type": "address"
        },
        {
          "internalType": "uint256",
          "name": "timestamp",
          "type": "uint256"
        }
      ],
      "stateMutability": "view",
      "type": "function",
      "constant": true
    },
    {
      "inputs": [
        {
          "internalType": "string",
          "name": "_data",
          "type": "string"
        }
      ],
      "name": "addRecord",
      "outputs": [],
      "stateMutability": "nonpayable",
      "type": "function"
    },
    {
      "inputs": [
        {
          "internalType": "uint256",
          "name": "_id",
          "type": "uint256"
        }
      ],
      "name": "getRecord",
      "outputs": [
        {
          "internalType": "string",
          "name": "data",
          "type": "string"
        },
        {
          "internalType": "address",
          "name": "owner",
          "type": "address"
        },
        {
          "internalType": "uint256",
          "name": "timestamp",
          "type": "uint256"
        }
      ],
      "stateMutability": "view",
      "type": "function",
      "constant": true
    },
    {
      "inputs": [],
      "name": "getRecordCount",
      "outputs": [
        {
          "internalType": "uint256",
          "name": "",
          "type": "uint256"
        }
      ],
      "stateMutability": "view",
      "type": "function",
      "constant": true
    }
  ],
  "bytecode": "0x608060405234801561001057600080fd5b5061098a806100206000396000f3fe608060405234801561001057600080fd5b50600436106100575760003560e01c806303e9e6091461005c578063344610671461008e578063900407bc146100c0578063ca267f28146100de578063d81aa8c4146100fc575b600080fd5b610076600480360381019061007191906105f0565b610118565b604051610085939291906106b0565b60405180910390f35b6100a860048036038101906100a391906105f0565b61029e565b6040516100b7939291906106b0565b60405180910390f35b6100c8610370565b6040516100d5919061070e565b60405180910390f35b6100e6610376565b6040516100f3919061070e565b60405180910390f35b610116600480360381019061011191906105af565b610380565b005b606060008060008411801561012f57506001548411155b61016e576040517f08c379a0000000000000000000000000000000000000000000000000000000008152600401610165906106ee565b60405180910390fd5b600080600086815260200190815260200160002060405180606001604052908160008201805461019d90610824565b80601f01602080910402602001604051908101604052809291908181526020018280546101c990610824565b80156102165780601f106101eb57610100808354040283529160200191610216565b820191906000526020600020905b8154815290600101906020018083116101f957829003601f168201915b505050505081526020016001820160009054906101000a900473ffffffffffffffffffffffffffffffffffffffff1673ffffffffffffffffffffffffffffffffffffffff1673ffffffffffffffffffffffffffffffffffffffff1681526020016002820154815250509050806000015181602001518260400151935093509350509193909250565b60006020528060005260406000206000915090508060000180546102c190610824565b80601f01602080910402602001604051908101604052809291908181526020018280546102ed90610824565b801561033a5780601f1061030f5761010080835404028352916020019161033a565b820191906000526020600020905b81548152906001019060200180831161031d57829003601f168201915b5050505050908060010160009054906101000a900473ffffffffffffffffffffffffffffffffffffffff16908060020154905083565b60015481565b6000600154905090565b6001600081548092919061039390610856565b919050555060405180606001604052808281526020013373ffffffffffffffffffffffffffffffffffffffff16815260200142815250600080600154815260200190815260200160002060008201518160000190805190602001906103f992919061048f565b5060208201518160010160006101000a81548173ffffffffffffffffffffffffffffffffffffffff021916908373ffffffffffffffffffffffffffffffffffffffff160217905550604082015181600201559050506001547fc67f76e046dda5b143e307ade4d651f1c45d4937b88a5592255c70d817768e5a823342604051610484939291906106b0565b60405180910390a250565b82805461049b90610824565b90600052602060002090601f0160209004810192826104bd5760008555610504565b82601f106104d657805160ff1916838001178555610504565b82800160010185558215610504579182015b828111156105035782518255916020019190600101906104e8565b5b5090506105119190610515565b5090565b5b8082111561052e576000816000905550600101610516565b5090565b60006105456105408461075a565b610729565b90508281526020810184848401111561055d57600080fd5b6105688482856107e2565b509392505050565b600082601f83011261058157600080fd5b8135610591848260208601610532565b91505092915050565b6000813590506105a98161093d565b92915050565b6000602082840312156105c157600080fd5b600082013567ffffffffffffffff8111156105db57600080fd5b6105e784828501610570565b91505092915050565b60006020828403121561060257600080fd5b60006106108482850161059a565b91505092915050565b610622816107a6565b82525050565b60006106338261078a565b61063d8185610795565b935061064d8185602086016107f1565b6106568161092c565b840191505092915050565b600061066e601183610795565b91507f496e76616c6964207265636f72642049440000000000000000000000000000006000830152602082019050919050565b6106aa816107d8565b82525050565b600060608201905081810360008301526106ca8186610628565b90506106d96020830185610619565b6106e660408301846106a1565b949350505050565b6000602082019050818103600083015261070781610661565b9050919050565b600060208201905061072360008301846106a1565b92915050565b6000604051905081810181811067ffffffffffffffff821117156107505761074f6108fd565b5b8060405250919050565b600067ffffffffffffffff821115610775576107746108fd565b5b601f19601f8301169050602081019050919050565b600081519050919050565b600082825260208201905092915050565b60006107b1826107b8565b9050919050565b600073ffffffffffffffffffffffffffffffffffffffff82169050919050565b6000819050919050565b82818337600083830152505050565b60005b8381101561080f5780820151818401526020810190506107f4565b8381111561081e576000848401525b50505050565b6000600282049050600182168061083c57607f821691505b602082108114156108505761084f6108ce565b5b50919050565b6000610861826107d8565b91507fffffffffffffffffffffffffffffffffffffffffffffffffffffffffffffffff8214156108945761089361089f565b5b600182019050919050565b7f4e487b7100000000000000000000000000000000000000000000000000000000600052601160045260246000fd5b7f4e487b7100000000000000000000000000000000000000000000000000000000600052602260045260246000fd5b7f4e487b7100000000000000000000000000000000000000000000000000000000600052604160045260246000fd5b6000601f19601f8301169050919050565b610946816107d8565b811461095157600080fd5b5056fea26469706673582212201f88d1459f9bed4ab77640b28167addcaa9a77d5bb06318ad097fd43dbe462d264736f6c63430008000033",
  "immutableReferences": {},
  "source": "// SPDX-License-Identifier: MIT\npragma solidity ^0.8.0;\n\ncontract MainContract {\n    struct Record {\n        string data;\n        address owner;\n        uint256 timestamp;\n    }\n\n    mapping(uint256 => Record) public records;\n    uint256 public recordCount;\n\n    event RecordAdded(uint256 indexed id, string data, address owner, uint256 timestamp);\n\n    function addRecord(string memory _data) public {\n        recordCount++;\n        records[recordCount] = Record({\n            data: _data,\n            owner: msg.sender,\n            timestamp: block.timestamp\n        });\n\n        emit RecordAdded(recordCount, _data, msg.sender, block.timestamp);\n    }\n\n    function getRecord(uint256 _id) public view returns (string memory data, address owner, uint256 timestamp) {\n        require(_id > 0 && _id <= recordCount, \"Invalid record ID\");\n        Record memory record = records[_id];\n        return (record.data, record.owner, record.timestamp);\n    }\n\n    function getRecordCount() public view returns (uint256) {\n        return recordCount;\n    }\n}\n",
  "sourcePath": "d:\\my_project\\hackkshetra\\smart-contracts\\contracts\\MainContract.sol",
  "compiler": {
    "name": "solc",
    "version": "0.8.0+commit.c7dfd78e.Emscripten.clang"
  },
  "schemaVersion": "3.4.16",
  "updatedAt": "2024-12-31T13:58:16.629Z",
  "networkType": "ethereum",
  "devdoc": {
    "kind": "dev",
    "methods": {},
    "version": 1
  },
  "userdoc": {
    "kind": "user",
    "methods": {},
    "version": 1
  }
}